{
  "contractName": "SupplyChain",
  "abi": [
    {
      "constant": true,
      "inputs": [],
      "name": "skuCount",
      "outputs": [
        {
          "name": "",
          "type": "uint256"
        }
      ],
      "payable": false,
      "stateMutability": "view",
      "type": "function"
    },
    {
      "constant": true,
      "inputs": [],
      "name": "owner",
      "outputs": [
        {
          "name": "",
          "type": "address"
        }
      ],
      "payable": false,
      "stateMutability": "view",
      "type": "function"
    },
    {
      "constant": true,
      "inputs": [
        {
          "name": "",
          "type": "uint256"
        }
      ],
      "name": "items",
      "outputs": [
        {
          "name": "name",
          "type": "string"
        },
        {
          "name": "sku",
          "type": "uint256"
        },
        {
          "name": "price",
          "type": "uint256"
        },
        {
          "name": "state",
          "type": "uint8"
        },
        {
          "name": "seller",
          "type": "address"
        },
        {
          "name": "buyer",
          "type": "address"
        }
      ],
      "payable": false,
      "stateMutability": "view",
      "type": "function"
    },
    {
      "inputs": [],
      "payable": false,
      "stateMutability": "nonpayable",
      "type": "constructor"
    },
    {
      "anonymous": false,
      "inputs": [
        {
          "indexed": true,
          "name": "sku",
          "type": "uint256"
        }
      ],
      "name": "ForSale",
      "type": "event"
    },
    {
      "anonymous": false,
      "inputs": [
        {
          "indexed": true,
          "name": "sku",
          "type": "uint256"
        }
      ],
      "name": "Sold",
      "type": "event"
    },
    {
      "anonymous": false,
      "inputs": [
        {
          "indexed": true,
          "name": "sku",
          "type": "uint256"
        }
      ],
      "name": "Shipped",
      "type": "event"
    },
    {
      "anonymous": false,
      "inputs": [
        {
          "indexed": true,
          "name": "sku",
          "type": "uint256"
        }
      ],
      "name": "Received",
      "type": "event"
    },
    {
      "constant": false,
      "inputs": [
        {
          "name": "_name",
          "type": "string"
        },
        {
          "name": "_price",
          "type": "uint256"
        }
      ],
      "name": "addItem",
      "outputs": [
        {
          "name": "",
          "type": "bool"
        }
      ],
      "payable": false,
      "stateMutability": "nonpayable",
      "type": "function"
    },
    {
      "constant": false,
      "inputs": [
        {
          "name": "sku",
          "type": "uint256"
        }
      ],
      "name": "buyItem",
      "outputs": [],
      "payable": true,
      "stateMutability": "payable",
      "type": "function"
    },
    {
      "constant": false,
      "inputs": [
        {
          "name": "sku",
          "type": "uint256"
        }
      ],
      "name": "shipItem",
      "outputs": [],
      "payable": false,
      "stateMutability": "nonpayable",
      "type": "function"
    },
    {
      "constant": false,
      "inputs": [
        {
          "name": "sku",
          "type": "uint256"
        }
      ],
      "name": "receiveItem",
      "outputs": [],
      "payable": false,
      "stateMutability": "nonpayable",
      "type": "function"
    },
    {
      "constant": true,
      "inputs": [
        {
          "name": "_sku",
          "type": "uint256"
        }
      ],
      "name": "fetchItem",
      "outputs": [
        {
          "name": "name",
          "type": "string"
        },
        {
          "name": "sku",
          "type": "uint256"
        },
        {
          "name": "price",
          "type": "uint256"
        },
        {
          "name": "state",
          "type": "uint256"
        },
        {
          "name": "seller",
          "type": "address"
        },
        {
          "name": "buyer",
          "type": "address"
        }
      ],
      "payable": false,
      "stateMutability": "view",
      "type": "function"
    }
  ],
  "bytecode": "0x608060405234801561001057600080fd5b50336000806101000a81548173ffffffffffffffffffffffffffffffffffffffff021916908373ffffffffffffffffffffffffffffffffffffffff160217905550600060018190555061114d806100686000396000f30060806040526004361061008e576000357c0100000000000000000000000000000000000000000000000000000000900463ffffffff168063227024731461009357806362d6bbdf146100be5780638da5cb5b14610149578063a26be999146101a0578063ad4b9cfb146101cd578063bfb231d2146102ee578063e7fb74c71461041d578063f61c899a1461043d575b600080fd5b34801561009f57600080fd5b506100a861046a565b6040518082815260200191505060405180910390f35b3480156100ca57600080fd5b5061012f600480360381019080803590602001908201803590602001908080601f016020809104026020016040519081016040528093929190818152602001838380828437820191505050505050919291929080359060200190929190505050610470565b604051808215151515815260200191505060405180910390f35b34801561015557600080fd5b5061015e61061f565b604051808273ffffffffffffffffffffffffffffffffffffffff1673ffffffffffffffffffffffffffffffffffffffff16815260200191505060405180910390f35b3480156101ac57600080fd5b506101cb60048036038101908080359060200190929190505050610644565b005b3480156101d957600080fd5b506101f860048036038101908080359060200190929190505050610860565b60405180806020018781526020018681526020018581526020018473ffffffffffffffffffffffffffffffffffffffff1673ffffffffffffffffffffffffffffffffffffffff1681526020018373ffffffffffffffffffffffffffffffffffffffff1673ffffffffffffffffffffffffffffffffffffffff168152602001828103825288818151815260200191508051906020019080838360005b838110156102ae578082015181840152602081019050610293565b50505050905090810190601f1680156102db5780820380516001836020036101000a031916815260200191505b5097505050505050505060405180910390f35b3480156102fa57600080fd5b5061031960048036038101908080359060200190929190505050610a0b565b604051808060200187815260200186815260200185600381111561033957fe5b60ff1681526020018473ffffffffffffffffffffffffffffffffffffffff1673ffffffffffffffffffffffffffffffffffffffff1681526020018373ffffffffffffffffffffffffffffffffffffffff1673ffffffffffffffffffffffffffffffffffffffff168152602001828103825288818151815260200191508051906020019080838360005b838110156103dd5780820151818401526020810190506103c2565b50505050905090810190601f16801561040a5780820380516001836020036101000a031916815260200191505b5097505050505050505060405180910390f35b61043b60048036038101908080359060200190929190505050610b2c565b005b34801561044957600080fd5b5061046860048036038101908080359060200190929190505050610e61565b005b60015481565b60006001547fa96ae0fc3224ebd79eebfe54bd130cc9cb94416cddd1f2386115e00b7253246860405160405180910390a260c0604051908101604052808481526020016001548152602001838152602001600060038111156104ce57fe5b81526020013373ffffffffffffffffffffffffffffffffffffffff168152602001600073ffffffffffffffffffffffffffffffffffffffff16815250600260006001548152602001908152602001600020600082015181600001908051906020019061053b92919061107c565b50602082015181600101556040820151816002015560608201518160030160006101000a81548160ff0219169083600381111561057457fe5b021790555060808201518160030160016101000a81548173ffffffffffffffffffffffffffffffffffffffff021916908373ffffffffffffffffffffffffffffffffffffffff16021790555060a08201518160040160006101000a81548173ffffffffffffffffffffffffffffffffffffffff021916908373ffffffffffffffffffffffffffffffffffffffff16021790555090505060018054016001819055506001905092915050565b6000809054906101000a900473ffffffffffffffffffffffffffffffffffffffff1681565b806002600381111561065257fe5b6002600083815260200190815260200160002060030160009054906101000a900460ff16600381111561068157fe5b1415156106f6576040517f08c379a000000000000000000000000000000000000000000000000000000000815260040180806020018281038252601e8152602001807f43757272656e74205374617465206973206e6f74202d2053686970706564000081525060200191505060405180910390fd5b6002600083815260200190815260200160002060040160009054906101000a900473ffffffffffffffffffffffffffffffffffffffff168073ffffffffffffffffffffffffffffffffffffffff163373ffffffffffffffffffffffffffffffffffffffff161415156107f6576040517f08c379a000000000000000000000000000000000000000000000000000000000815260040180806020018281038252602b8152602001807f6d73672e73656e646572206973206e6f7420657175616c20746f20726571756581526020017f737465642061646472657300000000000000000000000000000000000000000081525060400191505060405180910390fd5b827fa8142743f8f70a4c26f3691cf4ed59718381fb2f18070ec52be1f1022d85555760405160405180910390a260036002600085815260200190815260200160002060030160006101000a81548160ff0219169083600381111561085657fe5b0217905550505050565b60606000806000806000600260008881526020019081526020016000206000018054600181600116156101000203166002900480601f0160208091040260200160405190810160405280929190818152602001828054600181600116156101000203166002900480156109145780601f106108e957610100808354040283529160200191610914565b820191906000526020600020905b8154815290600101906020018083116108f757829003601f168201915b5050505050955060026000888152602001908152602001600020600101549450600260008881526020019081526020016000206002015493506002600088815260200190815260200160002060030160009054906101000a900460ff16600381111561097c57fe5b92506002600088815260200190815260200160002060030160019054906101000a900473ffffffffffffffffffffffffffffffffffffffff1691506002600088815260200190815260200160002060040160009054906101000a900473ffffffffffffffffffffffffffffffffffffffff16905085858585858595509550955095509550955091939550919395565b6002602052806000526040600020600091509050806000018054600181600116156101000203166002900480601f016020809104026020016040519081016040528092919081815260200182805460018160011615610100020316600290048015610ab75780601f10610a8c57610100808354040283529160200191610ab7565b820191906000526020600020905b815481529060010190602001808311610a9a57829003601f168201915b5050505050908060010154908060020154908060030160009054906101000a900460ff16908060030160019054906101000a900473ffffffffffffffffffffffffffffffffffffffff16908060040160009054906101000a900473ffffffffffffffffffffffffffffffffffffffff16905086565b8060006003811115610b3a57fe5b6002600083815260200190815260200160002060030160009054906101000a900460ff166003811115610b6957fe5b141515610bde576040517f08c379a000000000000000000000000000000000000000000000000000000000815260040180806020018281038252601e8152602001807f43757272656e74205374617465206973206e6f74202d20466f7253616c65000081525060200191505060405180910390fd5b6002600083815260200190815260200160002060020154803410151515610c6d576040517f08c379a000000000000000000000000000000000000000000000000000000000815260040180806020018281038252601d8152602001807f53756666696369656e7420616d6f756e74206973206e6f74207061696400000081525060200191505060405180910390fd5b82600080336002600088815260200190815260200160002060040160006101000a81548173ffffffffffffffffffffffffffffffffffffffff021916908373ffffffffffffffffffffffffffffffffffffffff16021790555060016002600088815260200190815260200160002060030160006101000a81548160ff02191690836003811115610cf957fe5b0217905550857f92f64ca637d023f354075a4be751b169c1a8a9ccb6d33cdd0cb352054399572760405160405180910390a26002600087815260200190815260200160002060030160019054906101000a900473ffffffffffffffffffffffffffffffffffffffff1673ffffffffffffffffffffffffffffffffffffffff166108fc60026000898152602001908152602001600020600201549081150290604051600060405180830381858888f19350505050158015610dbd573d6000803e3d6000fd5b506002600084815260200190815260200160002060020154915081340390506002600084815260200190815260200160002060040160009054906101000a900473ffffffffffffffffffffffffffffffffffffffff1673ffffffffffffffffffffffffffffffffffffffff166108fc829081150290604051600060405180830381858888f19350505050158015610e58573d6000803e3d6000fd5b50505050505050565b8060016003811115610e6f57fe5b6002600083815260200190815260200160002060030160009054906101000a900460ff166003811115610e9e57fe5b141515610f13576040517f08c379a000000000000000000000000000000000000000000000000000000000815260040180806020018281038252601b8152602001807f43757272656e74205374617465206973206e6f74202d20536f6c64000000000081525060200191505060405180910390fd5b6002600083815260200190815260200160002060030160019054906101000a900473ffffffffffffffffffffffffffffffffffffffff168073ffffffffffffffffffffffffffffffffffffffff163373ffffffffffffffffffffffffffffffffffffffff16141515611013576040517f08c379a000000000000000000000000000000000000000000000000000000000815260040180806020018281038252602b8152602001807f6d73672e73656e646572206973206e6f7420657175616c20746f20726571756581526020017f737465642061646472657300000000000000000000000000000000000000000081525060400191505060405180910390fd5b827ff00b9a5725b80c54016f42114f6ed7792d22eecb116011c4afac29c57bef6c9560405160405180910390a2600280600085815260200190815260200160002060030160006101000a81548160ff0219169083600381111561107257fe5b0217905550505050565b828054600181600116156101000203166002900490600052602060002090601f016020900481019282601f106110bd57805160ff19168380011785556110eb565b828001600101855582156110eb579182015b828111156110ea5782518255916020019190600101906110cf565b5b5090506110f891906110fc565b5090565b61111e91905b8082111561111a576000816000905550600101611102565b5090565b905600a165627a7a723058207f1ba4e3a3d8ef259107857dbfb660e169635527e1f010699d5e35b65c27f3160029",
  "source": "pragma solidity ^0.4.23;\n\ncontract SupplyChain {\n\n  /* set owner */\n  address public owner;\n\n  /* Add a variable called skuCount to track the most recent sku # */\n  uint public skuCount; \n\n  mapping (uint => Item) public items;\n  /* Add a line that creates a public mapping that maps the SKU (a number) to an Item.\n     Call this mappings items\n  */\n\n  /* Add a line that creates an enum called State. This should have 4 states\n    ForSale\n    Sold\n    Shipped\n    Received\n    (declaring them in this order is important for testing)\n  */\n\n  enum State {ForSale, Sold, Shipped, Received}\n\n  /* Create a struct named Item.\n    Here, add a name, sku, price, state, seller, and buyer\n    We've left you to figure out what the appropriate types are,\n    if you need help you can ask around :)\n  */\n\n  struct Item{\n    string name;\n    uint sku; \n    uint price; \n    State state; \n    address seller; \n    address buyer; \n  }\n\n  /* Create 4 events with the same name as each possible State (see above)\n    Each event should accept one argument, the sku*/\n  event ForSale(uint indexed sku);\n  event Sold(uint indexed sku);\n  event Shipped(uint indexed sku);\n  event Received(uint indexed sku);\n\n/* Create a modifer that checks if the msg.sender is the owner of the contract */\n  modifier verifyOwner(){require(msg.sender == owner); _ ;}\n\n  modifier verifyCaller (address _address) { require (msg.sender == _address, \"msg.sender is not equal to requested addres\");_;}\n\n  modifier paidEnough(uint _price) { require(msg.value >= _price, \"Sufficient amount is not paid\"); _;}\n  modifier checkValue(uint _sku) {\n    //refund them after pay for item (why it is before, _ checks for logic before func)\n    _;\n    uint _price = items[_sku].price;\n    uint amountToRefund = msg.value - _price;\n    items[_sku].buyer.transfer(amountToRefund);\n  }\n\n  /* For each of the following modifiers, use what you learned about modifiers\n   to give them functionality. For example, the forSale modifier should require\n   that the item with the given sku has the state ForSale. */\n  modifier forSale(uint sku){\n    require(items[sku].state == State.ForSale, \"Current State is not - ForSale\");\n    _;\n  }\n  modifier sold(uint sku){\n    require(items[sku].state  == State.Sold, \"Current State is not - Sold\");\n    _;\n  }\n  modifier shipped(uint sku){\n    require(items[sku].state == State.Shipped, \"Current State is not - Shipped\");\n    _;\n  }\n  modifier received(uint sku){\n    require(items[sku].state == State.Received, \"Current State is not Received\");\n    _;\n  }\n\n\n  constructor() public {\n    owner = msg.sender; \n    skuCount = 0;\n    /* Here, set the owner as the person who instantiated the contract\n       and set your skuCount to 0. */\n  }\n\n  function addItem(string _name, uint _price) public returns(bool){\n    emit ForSale(skuCount);\n    items[skuCount] = Item({name: _name, sku: skuCount, price: _price, state: State.ForSale, seller: msg.sender, buyer: 0});\n    skuCount = skuCount + 1;\n    return true;\n  }\n\n  /* Add a keyword so the function can be paid. This function should transfer money\n    to the seller, set the buyer as the person who called this transaction, and set the state\n    to Sold. Be careful, this function should use 3 modifiers to check if the item is for sale,\n    if the buyer paid enough, and check the value after the function is called to make sure the buyer is\n    refunded any excess ether sent. Remember to call the event associated with this function!*/\n\n  function buyItem(uint sku) public payable\n    forSale(sku)\n    paidEnough(items[sku].price)\n    checkValue(sku)\n    {\n    //Adding state change and buyer details before transfer will solve re-entrancy attacks\n    items[sku].buyer = msg.sender;            \n    items[sku].state = State.Sold; \n    emit Sold(sku);                           // Call the event associated with this function\n    items[sku].seller.transfer(items[sku].price);    // transfer money to the seller\n  }\n\n  /* Add 2 modifiers to check if the item is sold already, and that the person calling this function\n  is the seller. Change the state of the item to shipped. Remember to call the event associated with this function!*/\n  function shipItem(uint sku) public\n    sold(sku)\n    verifyCaller(items[sku].seller)\n  { \n    emit Shipped(sku);\n    items[sku].state = State.Shipped; \n  }\n\n  /* Add 2 modifiers to check if the item is shipped already, and that the person calling this function\n  is the buyer. Change the state of the item to received. Remember to call the event associated with this function!*/\n  function receiveItem(uint sku) public\n    shipped(sku)\n    verifyCaller(items[sku].buyer)\n  {\n    emit Received(sku);\n    items[sku].state = State.Received; \n  }\n\n  /* We have these functions completed so we can run tests, just ignore it :) */\n  function fetchItem(uint _sku) public view returns (string name, uint sku, uint price, uint state, address seller, address buyer) {\n    name = items[_sku].name;\n    sku = items[_sku].sku;\n    price = items[_sku].price;\n    state = uint(items[_sku].state);\n    seller = items[_sku].seller;\n    buyer = items[_sku].buyer;\n    return (name, sku, price, state, seller, buyer);\n  }\n\n}",
  "sourcePath": "/home/ynkumar/bspl/labs/supply-chain-ynkumar143/contracts/SupplyChain.sol",
  "compiler": {
    "name": "solc",
    "version": "0.4.24+commit.e67f0147.Emscripten.clang"
  },
  "schemaVersion": "2.0.1",
  "updatedAt": "2018-11-29T12:30:38.797Z"
}